{
  "address": "0x2A71693A4d88b4f6AE6697A87b3524c04B92ab38",
  "abi": [
    {
      "inputs": [
        {
          "internalType": "address",
          "name": "_mothership",
          "type": "address"
        }
      ],
      "stateMutability": "nonpayable",
      "type": "constructor"
    },
    {
      "anonymous": false,
      "inputs": [
        {
          "indexed": true,
          "internalType": "address",
          "name": "user",
          "type": "address"
        },
        {
          "indexed": false,
          "internalType": "uint256",
          "name": "vote",
          "type": "uint256"
        },
        {
          "indexed": false,
          "internalType": "bool",
          "name": "isDefault",
          "type": "bool"
        },
        {
          "indexed": false,
          "internalType": "uint256",
          "name": "amount",
          "type": "uint256"
        }
      ],
      "name": "LeftoverGovernanceShareUpdate",
      "type": "event"
    },
    {
      "anonymous": false,
      "inputs": [
        {
          "indexed": true,
          "internalType": "address",
          "name": "user",
          "type": "address"
        },
        {
          "indexed": false,
          "internalType": "uint256",
          "name": "vote",
          "type": "uint256"
        },
        {
          "indexed": false,
          "internalType": "bool",
          "name": "isDefault",
          "type": "bool"
        },
        {
          "indexed": false,
          "internalType": "uint256",
          "name": "amount",
          "type": "uint256"
        }
      ],
      "name": "LeftoverReferralShareUpdate",
      "type": "event"
    },
    {
      "inputs": [
        {
          "internalType": "address",
          "name": "account",
          "type": "address"
        }
      ],
      "name": "balanceOf",
      "outputs": [
        {
          "internalType": "uint256",
          "name": "",
          "type": "uint256"
        }
      ],
      "stateMutability": "view",
      "type": "function"
    },
    {
      "inputs": [],
      "name": "discardLeftoverShareVote",
      "outputs": [],
      "stateMutability": "nonpayable",
      "type": "function"
    },
    {
      "inputs": [],
      "name": "leftoverGovernanceShare",
      "outputs": [
        {
          "internalType": "uint256",
          "name": "",
          "type": "uint256"
        }
      ],
      "stateMutability": "view",
      "type": "function"
    },
    {
      "inputs": [
        {
          "internalType": "address",
          "name": "user",
          "type": "address"
        }
      ],
      "name": "leftoverGovernanceShareVotes",
      "outputs": [
        {
          "internalType": "uint256",
          "name": "",
          "type": "uint256"
        }
      ],
      "stateMutability": "view",
      "type": "function"
    },
    {
      "inputs": [],
      "name": "leftoverReferralShare",
      "outputs": [
        {
          "internalType": "uint256",
          "name": "",
          "type": "uint256"
        }
      ],
      "stateMutability": "view",
      "type": "function"
    },
    {
      "inputs": [
        {
          "internalType": "address",
          "name": "user",
          "type": "address"
        }
      ],
      "name": "leftoverReferralShareVotes",
      "outputs": [
        {
          "internalType": "uint256",
          "name": "",
          "type": "uint256"
        }
      ],
      "stateMutability": "view",
      "type": "function"
    },
    {
      "inputs": [
        {
          "internalType": "uint256",
          "name": "govShare",
          "type": "uint256"
        }
      ],
      "name": "leftoverShareVote",
      "outputs": [],
      "stateMutability": "nonpayable",
      "type": "function"
    },
    {
      "inputs": [],
      "name": "mothership",
      "outputs": [
        {
          "internalType": "address",
          "name": "",
          "type": "address"
        }
      ],
      "stateMutability": "view",
      "type": "function"
    },
    {
      "inputs": [
        {
          "internalType": "address",
          "name": "account",
          "type": "address"
        },
        {
          "internalType": "uint256",
          "name": "newBalance",
          "type": "uint256"
        }
      ],
      "name": "notifyStakeChanged",
      "outputs": [],
      "stateMutability": "nonpayable",
      "type": "function"
    },
    {
      "inputs": [
        {
          "internalType": "address[]",
          "name": "accounts",
          "type": "address[]"
        },
        {
          "internalType": "uint256[]",
          "name": "newBalances",
          "type": "uint256[]"
        }
      ],
      "name": "notifyStakesChanged",
      "outputs": [],
      "stateMutability": "nonpayable",
      "type": "function"
    },
    {
      "inputs": [],
      "name": "parameters",
      "outputs": [
        {
          "internalType": "uint256",
          "name": "govShare",
          "type": "uint256"
        },
        {
          "internalType": "uint256",
          "name": "refShare",
          "type": "uint256"
        }
      ],
      "stateMutability": "view",
      "type": "function"
    },
    {
      "inputs": [],
      "name": "totalSupply",
      "outputs": [
        {
          "internalType": "uint256",
          "name": "",
          "type": "uint256"
        }
      ],
      "stateMutability": "view",
      "type": "function"
    },
    {
      "inputs": [],
      "name": "virtualLeftoverGovernanceShare",
      "outputs": [
        {
          "internalType": "uint104",
          "name": "",
          "type": "uint104"
        },
        {
          "internalType": "uint104",
          "name": "",
          "type": "uint104"
        },
        {
          "internalType": "uint48",
          "name": "",
          "type": "uint48"
        }
      ],
      "stateMutability": "view",
      "type": "function"
    },
    {
      "inputs": [],
      "name": "virtualLeftoverReferralShare",
      "outputs": [
        {
          "internalType": "uint104",
          "name": "",
          "type": "uint104"
        },
        {
          "internalType": "uint104",
          "name": "",
          "type": "uint104"
        },
        {
          "internalType": "uint48",
          "name": "",
          "type": "uint48"
        }
      ],
      "stateMutability": "view",
      "type": "function"
    }
  ],
  "transactionHash": "0xcb8cf67008b270fd3913fc5bdb3748e7f76662ac31a1b35193f1b6470e3f05a4",
  "args": [
    "0x73F0a6927A3c04E679074e70DFb9105F453e799D"
  ],
  "solcInputHash": "ef6f5ce9103a501e8918e5bcb055de90",
  "bytecode": "0x60a060405234801561001057600080fd5b506040516115293803806115298339818101604052602081101561003357600080fd5b5051606081901b6001600160601b031916608052610063670b1a2bc2ec500000610094602090811b610a1217901c565b600280546001600160681b0392909216600160681b02600160681b600160d01b0319909216919091179055506100f2565b6000600160681b82106100ee576040805162461bcd60e51b815260206004820152601e60248201527f76616c756520646f6573206e6f742066697420696e2031303420626974730000604482015290519081900360640190fd5b5090565b60805160601c61141061011960003980610430528061057d528061081b52506114106000f3fe608060405234801561001057600080fd5b50600436106100ea5760003560e01c806370a082311161008c57806394f4b1621161006657806394f4b16214610269578063ad33334814610271578063e44f53d314610333578063fa3f88ae14610366576100ea565b806370a08231146101f85780637bcf84c01461022b5780638903573014610248576100ea565b80632fce8dea116100c85780632fce8dea1461018457806331f866af1461018c5780634187b7d6146101bf5780634aded6ce146101f0576100ea565b806310d97a18146100ef57806318160ddd1461012f57806327a2743314610149575b600080fd5b6100f761036e565b604080516cffffffffffffffffffffffffff948516815292909316602083015265ffffffffffff168183015290519081900360600190f35b610137610412565b60408051918252519081900360200190f35b6101826004803603604081101561015f57600080fd5b5073ffffffffffffffffffffffffffffffffffffffff8135169060200135610418565b005b6100f76104ca565b610137600480360360208110156101a257600080fd5b503573ffffffffffffffffffffffffffffffffffffffff1661051d565b6101c761057b565b6040805173ffffffffffffffffffffffffffffffffffffffff9092168252519081900360200190f35b61013761059f565b6101376004803603602081101561020e57600080fd5b503573ffffffffffffffffffffffffffffffffffffffff16610618565b6101826004803603602081101561024157600080fd5b5035610640565b610250610707565b6040805192835260208301919091528051918290030190f35b610137610793565b6101826004803603604081101561028757600080fd5b8101906020810181356401000000008111156102a257600080fd5b8201836020820111156102b457600080fd5b803590602001918460208302840111640100000000831117156102d657600080fd5b9193909290916020810190356401000000008111156102f457600080fd5b82018360208201111561030657600080fd5b8035906020019184602083028401116401000000008311171561032857600080fd5b509092509050610803565b6101376004803603602081101561034957600080fd5b503573ffffffffffffffffffffffffffffffffffffffff16610973565b6101826109b8565b600254600090819081906103a39061039e90670de0b6b3a7640000906cffffffffffffffffffffffffff16610a94565b610a12565b6002546103dd9061039e90670de0b6b3a7640000906d010000000000000000000000000090046cffffffffffffffffffffffffff16610a94565b60025491959094507a01000000000000000000000000000000000000000000000000000090910465ffffffffffff1692509050565b60005490565b3373ffffffffffffffffffffffffffffffffffffffff7f000000000000000000000000000000000000000000000000000000000000000016146104bc57604080517f08c379a000000000000000000000000000000000000000000000000000000000815260206004820152601f60248201527f416363657373207265737472696374656420746f206d6f746865727368697000604482015290519081900360640190fd5b6104c68282610b0b565b5050565b6002546cffffffffffffffffffffffffff808216926d01000000000000000000000000008304909116917a010000000000000000000000000000000000000000000000000000900465ffffffffffff1690565b73ffffffffffffffffffffffffffffffffffffffff8116600090815260056020908152604080832081519283019091525481526105759061056690670b1a2bc2ec500000610bbe565b670de0b6b3a764000090610a94565b92915050565b7f000000000000000000000000000000000000000000000000000000000000000081565b604080516060810182526002546cffffffffffffffffffffffffff80821683526d010000000000000000000000000082041660208301527a010000000000000000000000000000000000000000000000000000900465ffffffffffff16918101919091526000906106139061056690610bf8565b905090565b73ffffffffffffffffffffffffffffffffffffffff1660009081526001602052604090205490565b6000610694826040518060400160405280601c81526020017f476f7665726e616e636520736861726520697320746f6f206869676800000000815250670de0b6b3a7640000610c989092919063ffffffff16565b905060006106a133610618565b905060006106ad610412565b336000818152600560209081526040918290208251918201909252905481529192506106f4916106dc87610d49565b60029291908686670b1a2bc2ec500000610d68610dc8565b6107013384600085610de3565b50505050565b604080516060810182526002546cffffffffffffffffffffffffff80821683526d010000000000000000000000000082041660208301527a010000000000000000000000000000000000000000000000000000900465ffffffffffff1691810191909152600090819061077990610bf8565b915061078d670de0b6b3a764000083610a94565b90509091565b604080516060810182526002546cffffffffffffffffffffffffff80821683526d010000000000000000000000000082041660208301527a010000000000000000000000000000000000000000000000000000900465ffffffffffff169181019190915260009061061390610bf8565b3373ffffffffffffffffffffffffffffffffffffffff7f000000000000000000000000000000000000000000000000000000000000000016146108a757604080517f08c379a000000000000000000000000000000000000000000000000000000000815260206004820152601f60248201527f416363657373207265737472696374656420746f206d6f746865727368697000604482015290519081900360640190fd5b82811461091557604080517f08c379a000000000000000000000000000000000000000000000000000000000815260206004820152601d60248201527f417272617973206c656e6774682073686f756c6420626520657175616c000000604482015290519081900360640190fd5b60005b8381101561096c5761096485858381811061092f57fe5b9050602002013573ffffffffffffffffffffffffffffffffffffffff1684848481811061095857fe5b90506020020135610b0b565b600101610918565b5050505050565b73ffffffffffffffffffffffffffffffffffffffff81166000908152600560209081526040808320815192830190915254815261057590670b1a2bc2ec500000610bbe565b60006109c333610618565b905060006109cf610412565b336000818152600560209081526040918290208251918201909252905481529192506109fd916106dc610e43565b6104c6336702c68af0bb140000600185610de3565b60006d01000000000000000000000000008210610a9057604080517f08c379a000000000000000000000000000000000000000000000000000000000815260206004820152601e60248201527f76616c756520646f6573206e6f742066697420696e2031303420626974730000604482015290519081900360640190fd5b5090565b600082821115610b0557604080517f08c379a000000000000000000000000000000000000000000000000000000000815260206004820152601e60248201527f536166654d6174683a207375627472616374696f6e206f766572666c6f770000604482015290519081900360640190fd5b50900390565b6000610b178383610e5e565b905080821415610b2757506104c6565b610b2f611386565b5073ffffffffffffffffffffffffffffffffffffffff83166000908152600560209081526040808320815192830190915254815290610b7961056683670b1a2bc2ec500000610bbe565b90506000610b85610412565b9050610ba260028785878986670b1a2bc2ec500000610d68610ed3565b610bb68683610bb086610ef7565b88610de3565b505050505050565b815160009015610bf2575081517fffffffffffffffffffffffffffffffffffffffffffffffffffffffffffffffff01610575565b50919050565b600080610c2662015180610c21856040015165ffffffffffff1642610a9490919063ffffffff16565b610efc565b90506000610c376201518083610a94565b9050610c9062015180610c8a610c698588602001516cffffffffffffffffffffffffff16610f1490919063ffffffff16565b8751610c84906cffffffffffffffffffffffffff1686610f14565b90610f87565b90610ffb565b949350505050565b60008184841115610d41576040517f08c379a00000000000000000000000000000000000000000000000000000000081526004018080602001828103825283818151815260200191508051906020019080838360005b83811015610d06578181015183820152602001610cee565b50505050905090810190601f168015610d335780820380516001836020036101000a031916815260200191505b509250505060405180910390fd5b505050900390565b610d51611386565b506040805160208101909152600182018152919050565b604080518481528315156020820152808201839052905173ffffffffffffffffffffffffffffffffffffffff8616917f2f2c318dd3a1bee02ade0f8f05d9c8f392f7988aa993cc619153bf068801d259919081900360600190a250505050565b610dd988888888888989898961107c565b5050505050505050565b604080518481528315156020820152808201839052905173ffffffffffffffffffffffffffffffffffffffff8616917fc81c61c2c3ce128e7b0962cbb5ffd5d975dcefcca05b54345474f37943743b7a919081900360600190a250505050565b610e4b611386565b5060408051602081019091526000815290565b73ffffffffffffffffffffffffffffffffffffffff82166000908152600160205260409020548181146105755773ffffffffffffffffffffffffffffffffffffffff8316600090815260016020526040812083905554610eca908290610ec49085610f87565b90610a94565b60005592915050565b610dd98888888715610ee55789610eed565b610eed610e43565b898989898961107c565b511590565b6000818310610f0b5781610f0d565b825b9392505050565b600082610f2357506000610575565b82820282848281610f3057fe5b0414610f0d576040517f08c379a00000000000000000000000000000000000000000000000000000000081526004018080602001828103825260218152602001806113ba6021913960400191505060405180910390fd5b600082820183811015610f0d57604080517f08c379a000000000000000000000000000000000000000000000000000000000815260206004820152601b60248201527f536166654d6174683a206164646974696f6e206f766572666c6f770000000000604482015290519081900360640190fd5b600080821161106b57604080517f08c379a000000000000000000000000000000000000000000000000000000000815260206004820152601a60248201527f536166654d6174683a206469766973696f6e206279207a65726f000000000000604482015290519081900360640190fd5b81838161107457fe5b049392505050565b600189015460028a01548190806110928b610ef7565b156110a8576110a1818a610a94565b90506110c9565b6110c66110bf6110b88d89610bbe565b8b90610f14565b8490610a94565b92505b6110d28a610ef7565b156110e8576110e18189610f87565b9050611109565b6111066110ff6110f88c89610bbe565b8a90610f14565b8490610f87565b92505b8383146111185760018d018390555b8181146111275760028d018190555b6000871561114c5761114788610c8a611140858b610f14565b8790610f87565b61114e565b865b9050611158611399565b50604080516060810182528f546cffffffffffffffffffffffffff80821683526d0100000000000000000000000000820416602083018190527a01000000000000000000000000000000000000000000000000000090910465ffffffffffff169282019290925290821461129b578e6111d361039e83610bf8565b6111dc84610a12565b6111e542611308565b835479ffffffffffffffffffffffffffffffffffffffffffffffffffff167a01000000000000000000000000000000000000000000000000000065ffffffffffff9290921691909102177fffffffffffff00000000000000000000000000ffffffffffffffffffffffffff166d01000000000000000000000000006cffffffffffffffffffffffffff92831602177fffffffffffffffffffffffffffffffffffffff000000000000000000000000001691161790555b506112a890508a8c61137f565b6112d85773ffffffffffffffffffffffffffffffffffffffff8c16600090815260038e01602052604090208a5190555b6112f98c6112e68c89610bbe565b6112ef8d610ef7565b8b8963ffffffff16565b50505050505050505050505050565b600066010000000000008210610a9057604080517f08c379a000000000000000000000000000000000000000000000000000000000815260206004820152601d60248201527f76616c756520646f6573206e6f742066697420696e2034382062697473000000604482015290519081900360640190fd5b5190511490565b6040518060200160405280600081525090565b60408051606081018252600080825260208201819052918101919091529056fe536166654d6174683a206d756c7469706c69636174696f6e206f766572666c6f77a2646970667358221220306ea38aaf7b4008990f89c72cdf714cb0241ca50bc8187f7a2d378ce6edb1ac64736f6c634300060c0033",
  "devdoc": {
    "kind": "dev",
    "methods": {},
    "version": 1
  },
  "userdoc": {
    "kind": "user",
    "methods": {},
    "version": 1
  },
  "storageLayout": {
    "storage": [
      {
        "astId": 3969,
        "contract": "contracts/modules/ExchangeGovernance.sol:ExchangeGovernance",
        "label": "_totalSupply",
        "offset": 0,
        "slot": "0",
        "type": "t_uint256"
      },
      {
        "astId": 3973,
        "contract": "contracts/modules/ExchangeGovernance.sol:ExchangeGovernance",
        "label": "_balances",
        "offset": 0,
        "slot": "1",
        "type": "t_mapping(t_address,t_uint256)"
      },
      {
        "astId": 3517,
        "contract": "contracts/modules/ExchangeGovernance.sol:ExchangeGovernance",
        "label": "_leftoverGovernanceShare",
        "offset": 0,
        "slot": "2",
        "type": "t_struct(Data)2554_storage"
      }
    ],
    "types": {
      "t_address": {
        "encoding": "inplace",
        "label": "address",
        "numberOfBytes": "20"
      },
      "t_mapping(t_address,t_struct(Data)3185_storage)": {
        "encoding": "mapping",
        "key": "t_address",
        "label": "mapping(address => struct Vote.Data)",
        "numberOfBytes": "32",
        "value": "t_struct(Data)3185_storage"
      },
      "t_mapping(t_address,t_uint256)": {
        "encoding": "mapping",
        "key": "t_address",
        "label": "mapping(address => uint256)",
        "numberOfBytes": "32",
        "value": "t_uint256"
      },
      "t_struct(Data)2554_storage": {
        "encoding": "inplace",
        "label": "struct LiquidVoting.Data",
        "members": [
          {
            "astId": 2545,
            "contract": "contracts/modules/ExchangeGovernance.sol:ExchangeGovernance",
            "label": "data",
            "offset": 0,
            "slot": "0",
            "type": "t_struct(Data)3129_storage"
          },
          {
            "astId": 2547,
            "contract": "contracts/modules/ExchangeGovernance.sol:ExchangeGovernance",
            "label": "_weightedSum",
            "offset": 0,
            "slot": "1",
            "type": "t_uint256"
          },
          {
            "astId": 2549,
            "contract": "contracts/modules/ExchangeGovernance.sol:ExchangeGovernance",
            "label": "_defaultVotes",
            "offset": 0,
            "slot": "2",
            "type": "t_uint256"
          },
          {
            "astId": 2553,
            "contract": "contracts/modules/ExchangeGovernance.sol:ExchangeGovernance",
            "label": "votes",
            "offset": 0,
            "slot": "3",
            "type": "t_mapping(t_address,t_struct(Data)3185_storage)"
          }
        ],
        "numberOfBytes": "128"
      },
      "t_struct(Data)3129_storage": {
        "encoding": "inplace",
        "label": "struct VirtualVote.Data",
        "members": [
          {
            "astId": 3124,
            "contract": "contracts/modules/ExchangeGovernance.sol:ExchangeGovernance",
            "label": "oldResult",
            "offset": 0,
            "slot": "0",
            "type": "t_uint104"
          },
          {
            "astId": 3126,
            "contract": "contracts/modules/ExchangeGovernance.sol:ExchangeGovernance",
            "label": "result",
            "offset": 13,
            "slot": "0",
            "type": "t_uint104"
          },
          {
            "astId": 3128,
            "contract": "contracts/modules/ExchangeGovernance.sol:ExchangeGovernance",
            "label": "time",
            "offset": 26,
            "slot": "0",
            "type": "t_uint48"
          }
        ],
        "numberOfBytes": "32"
      },
      "t_struct(Data)3185_storage": {
        "encoding": "inplace",
        "label": "struct Vote.Data",
        "members": [
          {
            "astId": 3184,
            "contract": "contracts/modules/ExchangeGovernance.sol:ExchangeGovernance",
            "label": "value",
            "offset": 0,
            "slot": "0",
            "type": "t_uint256"
          }
        ],
        "numberOfBytes": "32"
      },
      "t_uint104": {
        "encoding": "inplace",
        "label": "uint104",
        "numberOfBytes": "13"
      },
      "t_uint256": {
        "encoding": "inplace",
        "label": "uint256",
        "numberOfBytes": "32"
      },
      "t_uint48": {
        "encoding": "inplace",
        "label": "uint48",
        "numberOfBytes": "6"
      }
    }
  }
}