{
  "address": "0xC4A8B7e29E3C8ec560cd4945c1cF3461a85a148d",
  "abi": [
    {
      "inputs": [
        {
          "internalType": "contract IERC20",
          "name": "_gift",
          "type": "address"
        },
        {
          "internalType": "address",
          "name": "_mothership",
          "type": "address"
        }
      ],
      "stateMutability": "nonpayable",
      "type": "constructor"
    },
    {
      "anonymous": false,
      "inputs": [
        {
          "indexed": true,
          "internalType": "address",
          "name": "previousOwner",
          "type": "address"
        },
        {
          "indexed": true,
          "internalType": "address",
          "name": "newOwner",
          "type": "address"
        }
      ],
      "name": "OwnershipTransferred",
      "type": "event"
    },
    {
      "anonymous": false,
      "inputs": [
        {
          "indexed": false,
          "internalType": "uint256",
          "name": "reward",
          "type": "uint256"
        }
      ],
      "name": "RewardAdded",
      "type": "event"
    },
    {
      "anonymous": false,
      "inputs": [
        {
          "indexed": true,
          "internalType": "address",
          "name": "user",
          "type": "address"
        },
        {
          "indexed": false,
          "internalType": "uint256",
          "name": "reward",
          "type": "uint256"
        }
      ],
      "name": "RewardPaid",
      "type": "event"
    },
    {
      "inputs": [],
      "name": "DURATION",
      "outputs": [
        {
          "internalType": "uint256",
          "name": "",
          "type": "uint256"
        }
      ],
      "stateMutability": "view",
      "type": "function"
    },
    {
      "inputs": [
        {
          "internalType": "address",
          "name": "account",
          "type": "address"
        }
      ],
      "name": "balanceOf",
      "outputs": [
        {
          "internalType": "uint256",
          "name": "",
          "type": "uint256"
        }
      ],
      "stateMutability": "view",
      "type": "function"
    },
    {
      "inputs": [
        {
          "internalType": "address",
          "name": "account",
          "type": "address"
        }
      ],
      "name": "earned",
      "outputs": [
        {
          "internalType": "uint256",
          "name": "",
          "type": "uint256"
        }
      ],
      "stateMutability": "view",
      "type": "function"
    },
    {
      "inputs": [],
      "name": "getReward",
      "outputs": [],
      "stateMutability": "nonpayable",
      "type": "function"
    },
    {
      "inputs": [],
      "name": "gift",
      "outputs": [
        {
          "internalType": "contract IERC20",
          "name": "",
          "type": "address"
        }
      ],
      "stateMutability": "view",
      "type": "function"
    },
    {
      "inputs": [],
      "name": "lastTimeRewardApplicable",
      "outputs": [
        {
          "internalType": "uint256",
          "name": "",
          "type": "uint256"
        }
      ],
      "stateMutability": "view",
      "type": "function"
    },
    {
      "inputs": [],
      "name": "lastUpdateTime",
      "outputs": [
        {
          "internalType": "uint256",
          "name": "",
          "type": "uint256"
        }
      ],
      "stateMutability": "view",
      "type": "function"
    },
    {
      "inputs": [],
      "name": "mothership",
      "outputs": [
        {
          "internalType": "address",
          "name": "",
          "type": "address"
        }
      ],
      "stateMutability": "view",
      "type": "function"
    },
    {
      "inputs": [
        {
          "internalType": "uint256",
          "name": "reward",
          "type": "uint256"
        }
      ],
      "name": "notifyRewardAmount",
      "outputs": [],
      "stateMutability": "nonpayable",
      "type": "function"
    },
    {
      "inputs": [
        {
          "internalType": "address",
          "name": "account",
          "type": "address"
        },
        {
          "internalType": "uint256",
          "name": "newBalance",
          "type": "uint256"
        }
      ],
      "name": "notifyStakeChanged",
      "outputs": [],
      "stateMutability": "nonpayable",
      "type": "function"
    },
    {
      "inputs": [
        {
          "internalType": "address[]",
          "name": "accounts",
          "type": "address[]"
        },
        {
          "internalType": "uint256[]",
          "name": "newBalances",
          "type": "uint256[]"
        }
      ],
      "name": "notifyStakesChanged",
      "outputs": [],
      "stateMutability": "nonpayable",
      "type": "function"
    },
    {
      "inputs": [],
      "name": "owner",
      "outputs": [
        {
          "internalType": "address",
          "name": "",
          "type": "address"
        }
      ],
      "stateMutability": "view",
      "type": "function"
    },
    {
      "inputs": [],
      "name": "periodFinish",
      "outputs": [
        {
          "internalType": "uint256",
          "name": "",
          "type": "uint256"
        }
      ],
      "stateMutability": "view",
      "type": "function"
    },
    {
      "inputs": [],
      "name": "renounceOwnership",
      "outputs": [],
      "stateMutability": "nonpayable",
      "type": "function"
    },
    {
      "inputs": [
        {
          "internalType": "contract IERC20",
          "name": "token",
          "type": "address"
        },
        {
          "internalType": "uint256",
          "name": "amount",
          "type": "uint256"
        }
      ],
      "name": "rescueFunds",
      "outputs": [],
      "stateMutability": "nonpayable",
      "type": "function"
    },
    {
      "inputs": [],
      "name": "rewardDistribution",
      "outputs": [
        {
          "internalType": "address",
          "name": "",
          "type": "address"
        }
      ],
      "stateMutability": "view",
      "type": "function"
    },
    {
      "inputs": [],
      "name": "rewardPerToken",
      "outputs": [
        {
          "internalType": "uint256",
          "name": "",
          "type": "uint256"
        }
      ],
      "stateMutability": "view",
      "type": "function"
    },
    {
      "inputs": [],
      "name": "rewardPerTokenStored",
      "outputs": [
        {
          "internalType": "uint256",
          "name": "",
          "type": "uint256"
        }
      ],
      "stateMutability": "view",
      "type": "function"
    },
    {
      "inputs": [],
      "name": "rewardRate",
      "outputs": [
        {
          "internalType": "uint256",
          "name": "",
          "type": "uint256"
        }
      ],
      "stateMutability": "view",
      "type": "function"
    },
    {
      "inputs": [
        {
          "internalType": "address",
          "name": "",
          "type": "address"
        }
      ],
      "name": "rewards",
      "outputs": [
        {
          "internalType": "uint256",
          "name": "",
          "type": "uint256"
        }
      ],
      "stateMutability": "view",
      "type": "function"
    },
    {
      "inputs": [
        {
          "internalType": "address",
          "name": "_rewardDistribution",
          "type": "address"
        }
      ],
      "name": "setRewardDistribution",
      "outputs": [],
      "stateMutability": "nonpayable",
      "type": "function"
    },
    {
      "inputs": [],
      "name": "totalSupply",
      "outputs": [
        {
          "internalType": "uint256",
          "name": "",
          "type": "uint256"
        }
      ],
      "stateMutability": "view",
      "type": "function"
    },
    {
      "inputs": [
        {
          "internalType": "address",
          "name": "newOwner",
          "type": "address"
        }
      ],
      "name": "transferOwnership",
      "outputs": [],
      "stateMutability": "nonpayable",
      "type": "function"
    },
    {
      "inputs": [
        {
          "internalType": "address",
          "name": "",
          "type": "address"
        }
      ],
      "name": "userRewardPerTokenPaid",
      "outputs": [
        {
          "internalType": "uint256",
          "name": "",
          "type": "uint256"
        }
      ],
      "stateMutability": "view",
      "type": "function"
    }
  ],
  "transactionHash": "0x23506e2d020b1b31e281fb51d8814838bfa76ba194a9c790318da62737f281db",
  "args": [
    "0x54431918cEC22932fCF97E54769F4E00f646690F",
    "0x11DEE30E710B8d4a8630392781Cc3c0046365d4c"
  ],
  "solcInputHash": "ef6f5ce9103a501e8918e5bcb055de90",
  "bytecode": "0x60c060405234801561001057600080fd5b50604051611bb3380380611bb38339818101604052604081101561003357600080fd5b5080516020909101516001600160601b0319606082901b166080528160006100596100bb565b600080546001600160a01b0319166001600160a01b0383169081178255604051929350917f8be0079c531659141344cd1fd0a4f28419497f9722a3daafe3b4186f6b6457e0908290a35060601b6001600160601b03191660a052506100bf9050565b3390565b60805160601c60a05160601c611ab26101016000398061067452806108a85280610afd5280610dca5250806106ae5280610bbf5280610f035250611ab26000f3fe608060405234801561001057600080fd5b50600436106101975760003560e01c8063715018a6116100e3578063ad3333481161008c578063df136d6511610066578063df136d6514610489578063ebe2b12b14610491578063f2fde38b1461049957610197565b8063ad333348146103b7578063c8f33c9114610479578063cd3daf9d1461048157610197565b806380faa57d116100bd57806380faa57d146103745780638b8763471461037c5780638da5cb5b146103af57610197565b8063715018a61461032b57806378e3214f146103335780637b0a47ee1461036c57610197565b806324b04905116101455780633d18b9121161011f5780633d18b912146102e85780634187b7d6146102f057806370a08231146102f857610197565b806324b049051461028a57806327a27433146102925780633c6b16ab146102cb57610197565b8063101114cf11610176578063101114cf1461024957806318160ddd1461027a5780631be052891461028257610197565b80628cc2621461019c5780630700037d146101e15780630d68b76114610214575b600080fd5b6101cf600480360360208110156101b257600080fd5b503573ffffffffffffffffffffffffffffffffffffffff166104cc565b60408051918252519081900360200190f35b6101cf600480360360208110156101f757600080fd5b503573ffffffffffffffffffffffffffffffffffffffff16610547565b6102476004803603602081101561022a57600080fd5b503573ffffffffffffffffffffffffffffffffffffffff16610559565b005b610251610648565b6040805173ffffffffffffffffffffffffffffffffffffffff9092168252519081900360200190f35b6101cf610664565b6101cf61066b565b610251610672565b610247600480360360408110156102a857600080fd5b5073ffffffffffffffffffffffffffffffffffffffff8135169060200135610696565b610247600480360360208110156102e157600080fd5b5035610748565b610247610a26565b610251610bbd565b6101cf6004803603602081101561030e57600080fd5b503573ffffffffffffffffffffffffffffffffffffffff16610be1565b610247610c09565b6102476004803603604081101561034957600080fd5b5073ffffffffffffffffffffffffffffffffffffffff8135169060200135610d20565b6101cf610ea4565b6101cf610eaa565b6101cf6004803603602081101561039257600080fd5b503573ffffffffffffffffffffffffffffffffffffffff16610ebd565b610251610ecf565b610247600480360360408110156103cd57600080fd5b8101906020810181356401000000008111156103e857600080fd5b8201836020820111156103fa57600080fd5b8035906020019184602083028401116401000000008311171561041c57600080fd5b91939092909160208101903564010000000081111561043a57600080fd5b82018360208201111561044c57600080fd5b8035906020019184602083028401116401000000008311171561046e57600080fd5b509092509050610eeb565b6101cf61105b565b6101cf611061565b6101cf6110af565b6101cf6110b5565b610247600480360360208110156104af57600080fd5b503573ffffffffffffffffffffffffffffffffffffffff166110bb565b73ffffffffffffffffffffffffffffffffffffffff81166000908152600960209081526040808320546008909252822054610541919061053b90670de0b6b3a7640000906105359061052690610520611061565b9061125c565b61052f88610be1565b906112d3565b9061134d565b906113ce565b92915050565b60096020526000908152604090205481565b610561611442565b73ffffffffffffffffffffffffffffffffffffffff1661057f610ecf565b73ffffffffffffffffffffffffffffffffffffffff161461060157604080517f08c379a000000000000000000000000000000000000000000000000000000000815260206004820181905260248201527f4f776e61626c653a2063616c6c6572206973206e6f7420746865206f776e6572604482015290519081900360640190fd5b600380547fffffffffffffffffffffffff00000000000000000000000000000000000000001673ffffffffffffffffffffffffffffffffffffffff92909216919091179055565b60035473ffffffffffffffffffffffffffffffffffffffff1681565b6001545b90565b62093a8081565b7f000000000000000000000000000000000000000000000000000000000000000081565b3373ffffffffffffffffffffffffffffffffffffffff7f0000000000000000000000000000000000000000000000000000000000000000161461073a57604080517f08c379a000000000000000000000000000000000000000000000000000000000815260206004820152601f60248201527f416363657373207265737472696374656420746f206d6f746865727368697000604482015290519081900360640190fd5b6107448282611446565b5050565b60035473ffffffffffffffffffffffffffffffffffffffff1633146107ce57604080517f08c379a000000000000000000000000000000000000000000000000000000000815260206004820152600d60248201527f4163636573732064656e69656400000000000000000000000000000000000000604482015290519081900360640190fd5b60006107d8611061565b6007556107e3610eaa565b60065573ffffffffffffffffffffffffffffffffffffffff8116156108445761080b816104cc565b73ffffffffffffffffffffffffffffffffffffffff82166000908152600960209081526040808320939093556007546008909152919020555b60045442106108625761085a8262093a8061134d565b6005556108a4565b600454600090610872904261125c565b9050600061088b600554836112d390919063ffffffff16565b905061089e62093a8061053586846113ce565b60055550505b60007f000000000000000000000000000000000000000000000000000000000000000073ffffffffffffffffffffffffffffffffffffffff166370a08231306040518263ffffffff1660e01b8152600401808273ffffffffffffffffffffffffffffffffffffffff16815260200191505060206040518083038186803b15801561092d57600080fd5b505afa158015610941573d6000803e3d6000fd5b505050506040513d602081101561095757600080fd5b505190506109688162093a8061134d565b60055411156109d857604080517f08c379a000000000000000000000000000000000000000000000000000000000815260206004820152601160248201527f52657761726420697320746f6f20626967000000000000000000000000000000604482015290519081900360640190fd5b4260068190556109eb9062093a806113ce565b6004556040805184815290517fde88a922e0d3b88b24e9623efeb464919c6bf9f66857a65e2bfcf2ce87a9433d9181900360200190a1505050565b33610a2f611061565b600755610a3a610eaa565b60065573ffffffffffffffffffffffffffffffffffffffff811615610a9b57610a62816104cc565b73ffffffffffffffffffffffffffffffffffffffff82166000908152600960209081526040808320939093556007546008909152919020555b3360009081526009602052604090205480156107445733600081815260096020908152604080832083905580517fa9059cbb000000000000000000000000000000000000000000000000000000008152600481019490945260248401859052517f000000000000000000000000000000000000000000000000000000000000000073ffffffffffffffffffffffffffffffffffffffff169363a9059cbb9360448083019493928390030190829087803b158015610b5757600080fd5b505af1158015610b6b573d6000803e3d6000fd5b505050506040513d6020811015610b8157600080fd5b505060408051828152905133917fe2403640ba68fed3a2f88b7557551d1993f84b99bb10ff833f0cf8db0c5e0486919081900360200190a25050565b7f000000000000000000000000000000000000000000000000000000000000000081565b73ffffffffffffffffffffffffffffffffffffffff1660009081526002602052604090205490565b610c11611442565b73ffffffffffffffffffffffffffffffffffffffff16610c2f610ecf565b73ffffffffffffffffffffffffffffffffffffffff1614610cb157604080517f08c379a000000000000000000000000000000000000000000000000000000000815260206004820181905260248201527f4f776e61626c653a2063616c6c6572206973206e6f7420746865206f776e6572604482015290519081900360640190fd5b6000805460405173ffffffffffffffffffffffffffffffffffffffff909116907f8be0079c531659141344cd1fd0a4f28419497f9722a3daafe3b4186f6b6457e0908390a3600080547fffffffffffffffffffffffff0000000000000000000000000000000000000000169055565b610d28611442565b73ffffffffffffffffffffffffffffffffffffffff16610d46610ecf565b73ffffffffffffffffffffffffffffffffffffffff1614610dc857604080517f08c379a000000000000000000000000000000000000000000000000000000000815260206004820181905260248201527f4f776e61626c653a2063616c6c6572206973206e6f7420746865206f776e6572604482015290519081900360640190fd5b7f000000000000000000000000000000000000000000000000000000000000000073ffffffffffffffffffffffffffffffffffffffff168273ffffffffffffffffffffffffffffffffffffffff161415610e8357604080517f08c379a000000000000000000000000000000000000000000000000000000000815260206004820152601160248201527f43616e2774207265736375652067696674000000000000000000000000000000604482015290519081900360640190fd5b61074473ffffffffffffffffffffffffffffffffffffffff831633836114cb565b60055481565b6000610eb84260045461154e565b905090565b60086020526000908152604090205481565b60005473ffffffffffffffffffffffffffffffffffffffff1690565b3373ffffffffffffffffffffffffffffffffffffffff7f00000000000000000000000000000000000000000000000000000000000000001614610f8f57604080517f08c379a000000000000000000000000000000000000000000000000000000000815260206004820152601f60248201527f416363657373207265737472696374656420746f206d6f746865727368697000604482015290519081900360640190fd5b828114610ffd57604080517f08c379a000000000000000000000000000000000000000000000000000000000815260206004820152601d60248201527f417272617973206c656e6774682073686f756c6420626520657175616c000000604482015290519081900360640190fd5b60005b838110156110545761104c85858381811061101757fe5b9050602002013573ffffffffffffffffffffffffffffffffffffffff1684848481811061104057fe5b90506020020135611446565b600101611000565b5050505050565b60065481565b600061106b610664565b6110785750600754610668565b610eb86110a6611086610664565b610535670de0b6b3a764000061052f60055461052f600654610520610eaa565b600754906113ce565b60075481565b60045481565b6110c3611442565b73ffffffffffffffffffffffffffffffffffffffff166110e1610ecf565b73ffffffffffffffffffffffffffffffffffffffff161461116357604080517f08c379a000000000000000000000000000000000000000000000000000000000815260206004820181905260248201527f4f776e61626c653a2063616c6c6572206973206e6f7420746865206f776e6572604482015290519081900360640190fd5b73ffffffffffffffffffffffffffffffffffffffff81166111cf576040517f08c379a00000000000000000000000000000000000000000000000000000000081526004018080602001828103825260268152602001806119e66026913960400191505060405180910390fd5b6000805460405173ffffffffffffffffffffffffffffffffffffffff808516939216917f8be0079c531659141344cd1fd0a4f28419497f9722a3daafe3b4186f6b6457e091a3600080547fffffffffffffffffffffffff00000000000000000000000000000000000000001673ffffffffffffffffffffffffffffffffffffffff92909216919091179055565b6000828211156112cd57604080517f08c379a000000000000000000000000000000000000000000000000000000000815260206004820152601e60248201527f536166654d6174683a207375627472616374696f6e206f766572666c6f770000604482015290519081900360640190fd5b50900390565b6000826112e257506000610541565b828202828482816112ef57fe5b0414611346576040517f08c379a0000000000000000000000000000000000000000000000000000000008152600401808060200182810382526021815260200180611a326021913960400191505060405180910390fd5b9392505050565b60008082116113bd57604080517f08c379a000000000000000000000000000000000000000000000000000000000815260206004820152601a60248201527f536166654d6174683a206469766973696f6e206279207a65726f000000000000604482015290519081900360640190fd5b8183816113c657fe5b049392505050565b60008282018381101561134657604080517f08c379a000000000000000000000000000000000000000000000000000000000815260206004820152601b60248201527f536166654d6174683a206164646974696f6e206f766572666c6f770000000000604482015290519081900360640190fd5b3390565b8161144f611061565b60075561145a610eaa565b60065573ffffffffffffffffffffffffffffffffffffffff8116156114bb57611482816104cc565b73ffffffffffffffffffffffffffffffffffffffff82166000908152600960209081526040808320939093556007546008909152919020555b6114c58383611564565b50505050565b8015611549576114da836115d5565b156115285760405173ffffffffffffffffffffffffffffffffffffffff83169082156108fc029083906000818181858888f19350505050158015611522573d6000803e3d6000fd5b50611549565b61154973ffffffffffffffffffffffffffffffffffffffff841683836115ef565b505050565b600081831061155d5781611346565b5090919050565b73ffffffffffffffffffffffffffffffffffffffff82166000908152600260205260409020548181146105415773ffffffffffffffffffffffffffffffffffffffff831660009081526002602052604090208290556001546115cc90829061052090856113ce565b60015592915050565b73ffffffffffffffffffffffffffffffffffffffff161590565b6040805173ffffffffffffffffffffffffffffffffffffffff8416602482015260448082018490528251808303909101815260649091019091526020810180517bffffffffffffffffffffffffffffffffffffffffffffffffffffffff167fa9059cbb0000000000000000000000000000000000000000000000000000000017905261154990849060606116d9826040518060400160405280602081526020017f5361666545524332303a206c6f772d6c6576656c2063616c6c206661696c65648152508573ffffffffffffffffffffffffffffffffffffffff1661174f9092919063ffffffff16565b805190915015611549578080602001905160208110156116f857600080fd5b5051611549576040517f08c379a000000000000000000000000000000000000000000000000000000000815260040180806020018281038252602a815260200180611a53602a913960400191505060405180910390fd5b606061175e8484600085611766565b949350505050565b6060824710156117c1576040517f08c379a0000000000000000000000000000000000000000000000000000000008152600401808060200182810382526026815260200180611a0c6026913960400191505060405180910390fd5b6117ca85611921565b61183557604080517f08c379a000000000000000000000000000000000000000000000000000000000815260206004820152601d60248201527f416464726573733a2063616c6c20746f206e6f6e2d636f6e7472616374000000604482015290519081900360640190fd5b600060608673ffffffffffffffffffffffffffffffffffffffff1685876040518082805190602001908083835b6020831061189f57805182527fffffffffffffffffffffffffffffffffffffffffffffffffffffffffffffffe09092019160209182019101611862565b6001836020036101000a03801982511681845116808217855250505050505090500191505060006040518083038185875af1925050503d8060008114611901576040519150601f19603f3d011682016040523d82523d6000602084013e611906565b606091505b5091509150611916828286611927565b979650505050505050565b3b151590565b60608315611936575081611346565b8251156119465782518084602001fd5b816040517f08c379a00000000000000000000000000000000000000000000000000000000081526004018080602001828103825283818151815260200191508051906020019080838360005b838110156119aa578181015183820152602001611992565b50505050905090810190601f1680156119d75780820380516001836020036101000a031916815260200191505b509250505060405180910390fdfe4f776e61626c653a206e6577206f776e657220697320746865207a65726f2061646472657373416464726573733a20696e73756666696369656e742062616c616e636520666f722063616c6c536166654d6174683a206d756c7469706c69636174696f6e206f766572666c6f775361666545524332303a204552433230206f7065726174696f6e20646964206e6f742073756363656564a264697066735822122099e3fdfe83ac457c42d05854770f50e4347165869233113dcee8b8021949e95d64736f6c634300060c0033",
  "devdoc": {
    "kind": "dev",
    "methods": {
      "owner()": {
        "details": "Returns the address of the current owner."
      },
      "renounceOwnership()": {
        "details": "Leaves the contract without owner. It will not be possible to call `onlyOwner` functions anymore. Can only be called by the current owner. NOTE: Renouncing ownership will leave the contract without an owner, thereby removing any functionality that is only available to the owner."
      },
      "transferOwnership(address)": {
        "details": "Transfers ownership of the contract to a new account (`newOwner`). Can only be called by the current owner."
      }
    },
    "version": 1
  },
  "userdoc": {
    "kind": "user",
    "methods": {},
    "version": 1
  },
  "storageLayout": {
    "storage": [
      {
        "astId": 7,
        "contract": "contracts/modules/GovernanceRewards.sol:GovernanceRewards",
        "label": "_owner",
        "offset": 0,
        "slot": "0",
        "type": "t_address"
      },
      {
        "astId": 3969,
        "contract": "contracts/modules/GovernanceRewards.sol:GovernanceRewards",
        "label": "_totalSupply",
        "offset": 0,
        "slot": "1",
        "type": "t_uint256"
      },
      {
        "astId": 3973,
        "contract": "contracts/modules/GovernanceRewards.sol:GovernanceRewards",
        "label": "_balances",
        "offset": 0,
        "slot": "2",
        "type": "t_mapping(t_address,t_uint256)"
      },
      {
        "astId": 4109,
        "contract": "contracts/modules/GovernanceRewards.sol:GovernanceRewards",
        "label": "rewardDistribution",
        "offset": 0,
        "slot": "3",
        "type": "t_address"
      },
      {
        "astId": 4113,
        "contract": "contracts/modules/GovernanceRewards.sol:GovernanceRewards",
        "label": "periodFinish",
        "offset": 0,
        "slot": "4",
        "type": "t_uint256"
      },
      {
        "astId": 4115,
        "contract": "contracts/modules/GovernanceRewards.sol:GovernanceRewards",
        "label": "rewardRate",
        "offset": 0,
        "slot": "5",
        "type": "t_uint256"
      },
      {
        "astId": 4117,
        "contract": "contracts/modules/GovernanceRewards.sol:GovernanceRewards",
        "label": "lastUpdateTime",
        "offset": 0,
        "slot": "6",
        "type": "t_uint256"
      },
      {
        "astId": 4119,
        "contract": "contracts/modules/GovernanceRewards.sol:GovernanceRewards",
        "label": "rewardPerTokenStored",
        "offset": 0,
        "slot": "7",
        "type": "t_uint256"
      },
      {
        "astId": 4123,
        "contract": "contracts/modules/GovernanceRewards.sol:GovernanceRewards",
        "label": "userRewardPerTokenPaid",
        "offset": 0,
        "slot": "8",
        "type": "t_mapping(t_address,t_uint256)"
      },
      {
        "astId": 4127,
        "contract": "contracts/modules/GovernanceRewards.sol:GovernanceRewards",
        "label": "rewards",
        "offset": 0,
        "slot": "9",
        "type": "t_mapping(t_address,t_uint256)"
      }
    ],
    "types": {
      "t_address": {
        "encoding": "inplace",
        "label": "address",
        "numberOfBytes": "20"
      },
      "t_mapping(t_address,t_uint256)": {
        "encoding": "mapping",
        "key": "t_address",
        "label": "mapping(address => uint256)",
        "numberOfBytes": "32",
        "value": "t_uint256"
      },
      "t_uint256": {
        "encoding": "inplace",
        "label": "uint256",
        "numberOfBytes": "32"
      }
    }
  }
}