{
  "address": "0x11DEE30E710B8d4a8630392781Cc3c0046365d4c",
  "abi": [
    {
      "inputs": [
        {
          "internalType": "contract IERC20",
          "name": "_inchToken",
          "type": "address"
        }
      ],
      "stateMutability": "nonpayable",
      "type": "constructor"
    },
    {
      "anonymous": false,
      "inputs": [
        {
          "indexed": true,
          "internalType": "address",
          "name": "module",
          "type": "address"
        }
      ],
      "name": "AddModule",
      "type": "event"
    },
    {
      "anonymous": false,
      "inputs": [
        {
          "indexed": true,
          "internalType": "address",
          "name": "previousOwner",
          "type": "address"
        },
        {
          "indexed": true,
          "internalType": "address",
          "name": "newOwner",
          "type": "address"
        }
      ],
      "name": "OwnershipTransferred",
      "type": "event"
    },
    {
      "anonymous": false,
      "inputs": [
        {
          "indexed": true,
          "internalType": "address",
          "name": "module",
          "type": "address"
        }
      ],
      "name": "RemoveModule",
      "type": "event"
    },
    {
      "anonymous": false,
      "inputs": [
        {
          "indexed": true,
          "internalType": "address",
          "name": "from",
          "type": "address"
        },
        {
          "indexed": true,
          "internalType": "address",
          "name": "to",
          "type": "address"
        },
        {
          "indexed": false,
          "internalType": "uint256",
          "name": "value",
          "type": "uint256"
        }
      ],
      "name": "Transfer",
      "type": "event"
    },
    {
      "inputs": [
        {
          "internalType": "address",
          "name": "module",
          "type": "address"
        }
      ],
      "name": "addModule",
      "outputs": [],
      "stateMutability": "nonpayable",
      "type": "function"
    },
    {
      "inputs": [
        {
          "internalType": "address",
          "name": "account",
          "type": "address"
        }
      ],
      "name": "balanceOf",
      "outputs": [
        {
          "internalType": "uint256",
          "name": "",
          "type": "uint256"
        }
      ],
      "stateMutability": "view",
      "type": "function"
    },
    {
      "inputs": [
        {
          "internalType": "address[]",
          "name": "accounts",
          "type": "address[]"
        }
      ],
      "name": "batchNotifyFor",
      "outputs": [],
      "stateMutability": "nonpayable",
      "type": "function"
    },
    {
      "inputs": [],
      "name": "decimals",
      "outputs": [
        {
          "internalType": "uint8",
          "name": "",
          "type": "uint8"
        }
      ],
      "stateMutability": "pure",
      "type": "function"
    },
    {
      "inputs": [],
      "name": "inchToken",
      "outputs": [
        {
          "internalType": "contract IERC20",
          "name": "",
          "type": "address"
        }
      ],
      "stateMutability": "view",
      "type": "function"
    },
    {
      "inputs": [],
      "name": "name",
      "outputs": [
        {
          "internalType": "string",
          "name": "",
          "type": "string"
        }
      ],
      "stateMutability": "pure",
      "type": "function"
    },
    {
      "inputs": [],
      "name": "notify",
      "outputs": [],
      "stateMutability": "nonpayable",
      "type": "function"
    },
    {
      "inputs": [
        {
          "internalType": "address",
          "name": "account",
          "type": "address"
        }
      ],
      "name": "notifyFor",
      "outputs": [],
      "stateMutability": "nonpayable",
      "type": "function"
    },
    {
      "inputs": [],
      "name": "owner",
      "outputs": [
        {
          "internalType": "address",
          "name": "",
          "type": "address"
        }
      ],
      "stateMutability": "view",
      "type": "function"
    },
    {
      "inputs": [
        {
          "internalType": "address",
          "name": "module",
          "type": "address"
        }
      ],
      "name": "removeModule",
      "outputs": [],
      "stateMutability": "nonpayable",
      "type": "function"
    },
    {
      "inputs": [],
      "name": "renounceOwnership",
      "outputs": [],
      "stateMutability": "nonpayable",
      "type": "function"
    },
    {
      "inputs": [
        {
          "internalType": "uint256",
          "name": "amount",
          "type": "uint256"
        }
      ],
      "name": "stake",
      "outputs": [],
      "stateMutability": "nonpayable",
      "type": "function"
    },
    {
      "inputs": [],
      "name": "symbol",
      "outputs": [
        {
          "internalType": "string",
          "name": "",
          "type": "string"
        }
      ],
      "stateMutability": "pure",
      "type": "function"
    },
    {
      "inputs": [],
      "name": "totalSupply",
      "outputs": [
        {
          "internalType": "uint256",
          "name": "",
          "type": "uint256"
        }
      ],
      "stateMutability": "view",
      "type": "function"
    },
    {
      "inputs": [
        {
          "internalType": "address",
          "name": "newOwner",
          "type": "address"
        }
      ],
      "name": "transferOwnership",
      "outputs": [],
      "stateMutability": "nonpayable",
      "type": "function"
    },
    {
      "inputs": [
        {
          "internalType": "uint256",
          "name": "amount",
          "type": "uint256"
        }
      ],
      "name": "unstake",
      "outputs": [],
      "stateMutability": "nonpayable",
      "type": "function"
    }
  ],
  "transactionHash": "0x76f1fa918168952d9f97ec246f72abba0717f98ee6086c1a3bc226ceddccb264",
  "args": [
    "0x54431918cEC22932fCF97E54769F4E00f646690F"
  ],
  "solcInputHash": "ef6f5ce9103a501e8918e5bcb055de90",
  "bytecode": "0x60a060405234801561001057600080fd5b506040516116533803806116538339818101604052602081101561003357600080fd5b5051600061003f61009e565b600080546001600160a01b0319166001600160a01b0383169081178255604051929350917f8be0079c531659141344cd1fd0a4f28419497f9722a3daafe3b4186f6b6457e0908290a35060601b6001600160601b0319166080526100a2565b3390565b60805160601c61158a6100c9600039806106705280610c9b5280610d64525061158a6000f3fe608060405234801561001057600080fd5b50600436106101005760003560e01c8063715018a611610097578063a063246111610066578063a06324611461035e578063a694fc3a14610391578063ec954594146103ae578063f2fde38b146103b657610100565b8063715018a614610315578063899f58981461031d5780638da5cb5b1461032557806395d89b411461035657610100565b80632e17de78116100d35780632e17de7814610204578063313ce567146102215780635cf1cd2b1461023f57806370a08231146102e257610100565b806306fdde0314610105578063132b4fc81461018257806318160ddd146101b75780631ed86f19146101d1575b600080fd5b61010d6103e9565b6040805160208082528351818301528351919283929083019185019080838360005b8381101561014757818101518382015260200161012f565b50505050905090810190601f1680156101745780820380516001836020036101000a031916815260200191505b509250505060405180910390f35b6101b56004803603602081101561019857600080fd5b503573ffffffffffffffffffffffffffffffffffffffff16610420565b005b6101bf610435565b60408051918252519081900360200190f35b6101b5600480360360208110156101e757600080fd5b503573ffffffffffffffffffffffffffffffffffffffff1661043b565b6101b56004803603602081101561021a57600080fd5b503561059d565b61022961071f565b6040805160ff9092168252519081900360200190f35b6101b56004803603602081101561025557600080fd5b81019060208101813564010000000081111561027057600080fd5b82018360208201111561028257600080fd5b803590602001918460208302840111640100000000831117156102a457600080fd5b919080806020026020016040519081016040528093929190818152602001838360200280828437600092019190915250929550610724945050505050565b6101bf600480360360208110156102f857600080fd5b503573ffffffffffffffffffffffffffffffffffffffff166108d6565b6101b56108fe565b6101b5610a15565b61032d610a24565b6040805173ffffffffffffffffffffffffffffffffffffffff9092168252519081900360200190f35b61010d610a40565b6101b56004803603602081101561037457600080fd5b503573ffffffffffffffffffffffffffffffffffffffff16610a77565b6101b5600480360360208110156103a757600080fd5b5035610bd9565b61032d610d62565b6101b5600480360360208110156103cc57600080fd5b503573ffffffffffffffffffffffffffffffffffffffff16610d86565b60408051808201909152601481527f31494e434820546f6b656e20285374616b656429000000000000000000000000602082015290565b6104328161042d836108d6565b610f27565b50565b60015490565b610443611031565b73ffffffffffffffffffffffffffffffffffffffff16610461610a24565b73ffffffffffffffffffffffffffffffffffffffff16146104e357604080517f08c379a000000000000000000000000000000000000000000000000000000000815260206004820181905260248201527f4f776e61626c653a2063616c6c6572206973206e6f7420746865206f776e6572604482015290519081900360640190fd5b6104ee600382611035565b61055957604080517f08c379a000000000000000000000000000000000000000000000000000000000815260206004820152601960248201527f4d6f64756c6520616c7265616479207265676973746572656400000000000000604482015290519081900360640190fd5b60405173ffffffffffffffffffffffffffffffffffffffff8216907f0e8ab0265c955b9584b70d255e316c63717f1fb52ba0acfff63bca74ca2e8fad90600090a250565b6000811161060c57604080517f08c379a000000000000000000000000000000000000000000000000000000000815260206004820152601c60248201527f456d70747920756e7374616b65206973206e6f7420616c6c6f77656400000000604482015290519081900360640190fd5b6106163382611060565b6106233361042d336108d6565b604080517fa9059cbb00000000000000000000000000000000000000000000000000000000815233600482015260248101839052905173ffffffffffffffffffffffffffffffffffffffff7f0000000000000000000000000000000000000000000000000000000000000000169163a9059cbb9160448083019260209291908290030181600087803b1580156106b857600080fd5b505af11580156106cc573d6000803e3d6000fd5b505050506040513d60208110156106e257600080fd5b505060408051828152905160009133917fddf252ad1be2c89b69c2b068fc378daa952ba7f163c4a11628f55a4df523b3ef9181900360200190a350565b601290565b60006107306003611102565b90506060825167ffffffffffffffff8111801561074c57600080fd5b50604051908082528060200260200182016040528015610776578160200160208202803683370190505b50905060005b83518110156107c0576107a184828151811061079457fe5b60200260200101516108d6565b8282815181106107ad57fe5b602090810291909101015260010161077c565b5060005b828110156108d0576107d760038261110d565b73ffffffffffffffffffffffffffffffffffffffff1663ad33334885846040518363ffffffff1660e01b8152600401808060200180602001838103835285818151815260200191508051906020019060200280838360005b8381101561084757818101518382015260200161082f565b50505050905001838103825284818151815260200191508051906020019060200280838360005b8381101561088657818101518382015260200161086e565b50505050905001945050505050600060405180830381600087803b1580156108ad57600080fd5b505af11580156108c1573d6000803e3d6000fd5b505050508060010190506107c4565b50505050565b73ffffffffffffffffffffffffffffffffffffffff1660009081526002602052604090205490565b610906611031565b73ffffffffffffffffffffffffffffffffffffffff16610924610a24565b73ffffffffffffffffffffffffffffffffffffffff16146109a657604080517f08c379a000000000000000000000000000000000000000000000000000000000815260206004820181905260248201527f4f776e61626c653a2063616c6c6572206973206e6f7420746865206f776e6572604482015290519081900360640190fd5b6000805460405173ffffffffffffffffffffffffffffffffffffffff909116907f8be0079c531659141344cd1fd0a4f28419497f9722a3daafe3b4186f6b6457e0908390a3600080547fffffffffffffffffffffffff0000000000000000000000000000000000000000169055565b610a223361042d336108d6565b565b60005473ffffffffffffffffffffffffffffffffffffffff1690565b60408051808201909152600781527f737431494e434800000000000000000000000000000000000000000000000000602082015290565b610a7f611031565b73ffffffffffffffffffffffffffffffffffffffff16610a9d610a24565b73ffffffffffffffffffffffffffffffffffffffff1614610b1f57604080517f08c379a000000000000000000000000000000000000000000000000000000000815260206004820181905260248201527f4f776e61626c653a2063616c6c6572206973206e6f7420746865206f776e6572604482015290519081900360640190fd5b610b2a600382611119565b610b9557604080517f08c379a000000000000000000000000000000000000000000000000000000000815260206004820152601960248201527f4d6f64756c6520776173206e6f74207265676973746572656400000000000000604482015290519081900360640190fd5b60405173ffffffffffffffffffffffffffffffffffffffff8216907f75f4e5771d2cdd015405ae76feb37f5792736e71ff18f8a9dd690772a48111a390600090a250565b60008111610c4857604080517f08c379a000000000000000000000000000000000000000000000000000000000815260206004820152601a60248201527f456d707479207374616b65206973206e6f7420616c6c6f776564000000000000604482015290519081900360640190fd5b604080517f23b872dd00000000000000000000000000000000000000000000000000000000815233600482015230602482015260448101839052905173ffffffffffffffffffffffffffffffffffffffff7f000000000000000000000000000000000000000000000000000000000000000016916323b872dd9160648083019260209291908290030181600087803b158015610ce357600080fd5b505af1158015610cf7573d6000803e3d6000fd5b505050506040513d6020811015610d0d57600080fd5b50610d1a9050338261113b565b610d273361042d336108d6565b60408051828152905133916000917fddf252ad1be2c89b69c2b068fc378daa952ba7f163c4a11628f55a4df523b3ef9181900360200190a350565b7f000000000000000000000000000000000000000000000000000000000000000081565b610d8e611031565b73ffffffffffffffffffffffffffffffffffffffff16610dac610a24565b73ffffffffffffffffffffffffffffffffffffffff1614610e2e57604080517f08c379a000000000000000000000000000000000000000000000000000000000815260206004820181905260248201527f4f776e61626c653a2063616c6c6572206973206e6f7420746865206f776e6572604482015290519081900360640190fd5b73ffffffffffffffffffffffffffffffffffffffff8116610e9a576040517f08c379a000000000000000000000000000000000000000000000000000000000815260040180806020018281038252602681526020018061152f6026913960400191505060405180910390fd5b6000805460405173ffffffffffffffffffffffffffffffffffffffff808516939216917f8be0079c531659141344cd1fd0a4f28419497f9722a3daafe3b4186f6b6457e091a3600080547fffffffffffffffffffffffff00000000000000000000000000000000000000001673ffffffffffffffffffffffffffffffffffffffff92909216919091179055565b600380546040805160208084028201810190925282815260609390929091830182828015610f7457602002820191906000526020600020905b815481526020019060010190808311610f60575b5050505050905060005b81518110156108d057818181518110610f9357fe5b602002602001015160001c73ffffffffffffffffffffffffffffffffffffffff166327a2743385856040518363ffffffff1660e01b8152600401808373ffffffffffffffffffffffffffffffffffffffff16815260200182815260200192505050600060405180830381600087803b15801561100e57600080fd5b505af1158015611022573d6000803e3d6000fd5b50505050806001019050610f7e565b3390565b60006110578373ffffffffffffffffffffffffffffffffffffffff84166111a8565b90505b92915050565b604080518082018252601b81527f4275726e20616d6f756e7420657863656564732062616c616e6365000000000060208083019190915273ffffffffffffffffffffffffffffffffffffffff85166000908152600290915291909120546110c89183906111f2565b73ffffffffffffffffffffffffffffffffffffffff83166000908152600260205260409020556001546110fb90826112a3565b6001555050565b600061105a8261131a565b6000611057838361131e565b60006110578373ffffffffffffffffffffffffffffffffffffffff841661139c565b6001546111489082611480565b60015573ffffffffffffffffffffffffffffffffffffffff821660009081526002602052604090205461117b9082611480565b73ffffffffffffffffffffffffffffffffffffffff90921660009081526002602052604090209190915550565b60006111b483836114f4565b6111ea5750815460018181018455600084815260208082209093018490558454848252828601909352604090209190915561105a565b50600061105a565b6000818484111561129b576040517f08c379a00000000000000000000000000000000000000000000000000000000081526004018080602001828103825283818151815260200191508051906020019080838360005b83811015611260578181015183820152602001611248565b50505050905090810190601f16801561128d5780820380516001836020036101000a031916815260200191505b509250505060405180910390fd5b505050900390565b60008282111561131457604080517f08c379a000000000000000000000000000000000000000000000000000000000815260206004820152601e60248201527f536166654d6174683a207375627472616374696f6e206f766572666c6f770000604482015290519081900360640190fd5b50900390565b5490565b8154600090821061137a576040517f08c379a000000000000000000000000000000000000000000000000000000000815260040180806020018281038252602281526020018061150d6022913960400191505060405180910390fd5b82600001828154811061138957fe5b9060005260206000200154905092915050565b600081815260018301602052604081205480156114765783547fffffffffffffffffffffffffffffffffffffffffffffffffffffffffffffffff80830191908101906000908790839081106113ed57fe5b906000526020600020015490508087600001848154811061140a57fe5b60009182526020808320909101929092558281526001898101909252604090209084019055865487908061143a57fe5b6001900381819060005260206000200160009055905586600101600087815260200190815260200160002060009055600194505050505061105a565b600091505061105a565b60008282018381101561105757604080517f08c379a000000000000000000000000000000000000000000000000000000000815260206004820152601b60248201527f536166654d6174683a206164646974696f6e206f766572666c6f770000000000604482015290519081900360640190fd5b6000908152600191909101602052604090205415159056fe456e756d657261626c655365743a20696e646578206f7574206f6620626f756e64734f776e61626c653a206e6577206f776e657220697320746865207a65726f2061646472657373a2646970667358221220fb904ada70d475566da9b95e28ccb7a954accae4dcf1f09e6dc271120931b04e64736f6c634300060c0033",
  "devdoc": {
    "kind": "dev",
    "methods": {
      "owner()": {
        "details": "Returns the address of the current owner."
      },
      "renounceOwnership()": {
        "details": "Leaves the contract without owner. It will not be possible to call `onlyOwner` functions anymore. Can only be called by the current owner. NOTE: Renouncing ownership will leave the contract without an owner, thereby removing any functionality that is only available to the owner."
      },
      "transferOwnership(address)": {
        "details": "Transfers ownership of the contract to a new account (`newOwner`). Can only be called by the current owner."
      }
    },
    "version": 1
  },
  "userdoc": {
    "kind": "user",
    "methods": {},
    "version": 1
  },
  "storageLayout": {
    "storage": [
      {
        "astId": 7,
        "contract": "contracts/GovernanceMothership.sol:GovernanceMothership",
        "label": "_owner",
        "offset": 0,
        "slot": "0",
        "type": "t_address"
      },
      {
        "astId": 3969,
        "contract": "contracts/GovernanceMothership.sol:GovernanceMothership",
        "label": "_totalSupply",
        "offset": 0,
        "slot": "1",
        "type": "t_uint256"
      },
      {
        "astId": 3973,
        "contract": "contracts/GovernanceMothership.sol:GovernanceMothership",
        "label": "_balances",
        "offset": 0,
        "slot": "2",
        "type": "t_mapping(t_address,t_uint256)"
      },
      {
        "astId": 2180,
        "contract": "contracts/GovernanceMothership.sol:GovernanceMothership",
        "label": "_modules",
        "offset": 0,
        "slot": "3",
        "type": "t_struct(AddressSet)1926_storage"
      }
    ],
    "types": {
      "t_address": {
        "encoding": "inplace",
        "label": "address",
        "numberOfBytes": "20"
      },
      "t_array(t_bytes32)dyn_storage": {
        "base": "t_bytes32",
        "encoding": "dynamic_array",
        "label": "bytes32[]",
        "numberOfBytes": "32"
      },
      "t_bytes32": {
        "encoding": "inplace",
        "label": "bytes32",
        "numberOfBytes": "32"
      },
      "t_mapping(t_address,t_uint256)": {
        "encoding": "mapping",
        "key": "t_address",
        "label": "mapping(address => uint256)",
        "numberOfBytes": "32",
        "value": "t_uint256"
      },
      "t_mapping(t_bytes32,t_uint256)": {
        "encoding": "mapping",
        "key": "t_bytes32",
        "label": "mapping(bytes32 => uint256)",
        "numberOfBytes": "32",
        "value": "t_uint256"
      },
      "t_struct(AddressSet)1926_storage": {
        "encoding": "inplace",
        "label": "struct EnumerableSet.AddressSet",
        "members": [
          {
            "astId": 1925,
            "contract": "contracts/GovernanceMothership.sol:GovernanceMothership",
            "label": "_inner",
            "offset": 0,
            "slot": "0",
            "type": "t_struct(Set)1661_storage"
          }
        ],
        "numberOfBytes": "64"
      },
      "t_struct(Set)1661_storage": {
        "encoding": "inplace",
        "label": "struct EnumerableSet.Set",
        "members": [
          {
            "astId": 1656,
            "contract": "contracts/GovernanceMothership.sol:GovernanceMothership",
            "label": "_values",
            "offset": 0,
            "slot": "0",
            "type": "t_array(t_bytes32)dyn_storage"
          },
          {
            "astId": 1660,
            "contract": "contracts/GovernanceMothership.sol:GovernanceMothership",
            "label": "_indexes",
            "offset": 0,
            "slot": "1",
            "type": "t_mapping(t_bytes32,t_uint256)"
          }
        ],
        "numberOfBytes": "64"
      },
      "t_uint256": {
        "encoding": "inplace",
        "label": "uint256",
        "numberOfBytes": "32"
      }
    }
  }
}